:020000040800F2
:10000000F00C002079020008CD5F0008771C000882
:10001000C95F0008C3190008236800080000000039
:10002000000000000000000000000000CD6100089A
:10003000C71900080000000055600008E1620008D0
:10004000930200089302000893020008930200083C
:10005000930200089302000893020008930200082C
:10006000930200089302000893020008930200081C
:10007000930200089302000893020008930200080C
:1000800093020008930200089302000893020008FC
:1000900093020008930200089302000893020008EC
:1000A00093020008930200089302000893020008DC
:1000B00093020008930200089302000893020008CC
:1000C00093020008930200089302000893020008BC
:1000D00093020008D5640008930200085D650008DB
:1000E000930200089302000893020008930200089C
:1000F000930200089302000893020008930200088C
:10010000930200089302000893020008930200087B
:100110009302000893020008930200084563000858
:10012000930200089302000893020008930200085B
:1001300000F002F800F090F80AA090E8000C824469
:100140008344AAF10107DA4501D100F085F8AFF246
:10015000090EBAE80F0013F0010F18BFFB1A43F0A5
:10016000010318476C8A00008C8A0000103A24BFF3
:1001700078C878C1FAD8520724BF30C830C144BF0C
:1001800004680C607047000000230024002500264E
:10019000103A28BF78C1FBD8520728BF30C148BFEA
:1001A0000B6070476E2900F0F882702900F05F81C3
:1001B000662907F0BF80652907F0BC80672907F032
:1001C000B9806129AFF3008003681B0A28BF41F0A2
:1001D0008001692900F0D080642900F0CD80752964
:1001E00000F0CA806F2900F0FD85782900F02B818E
:1001F000E92900F09785E42900F09485F52900F0BD
:100200009185EF2900F0FA85F82900F02A8103682A
:10021000DB0928BF41F08001632900F006857329BE
:1002200000F00B85E32900F08786F32900F08C8627
:10023000002070471FB500F0EBFD040000200021F6
:1002400006F048FE401C60600020002106F02CFEF5
:10025000E0601FBD10B510BD00F010FF1146FFF7A4
:10026000E9FF06F009FC00F037FF03B4FFF7F2FFE7
:1002700003BC06F0F3FA000009488047094800472C
:10028000FEE7FEE7FEE7FEE7FEE7FEE7FEE7FEE746
:10029000FEE7FEE704480549054A064B70470000A3
:1002A000E562000831010008F0060020F00C002093
:1002B000F0080020F0080020704700001CB50C4634
:1002C000064B7B4469460090204600F08CFC0446B7
:1002D0000020694600F09AFC20461CBD470900003A
:1002E0000FB4044910B503AA029800F0ABFC10BC8F
:1002F0005DF814FB1C0000200FB41CB5084B06AAC7
:100300007B4469460090059800F06DFC044600208F
:10031000694600F07BFC20461CBC5DF814FB000025
:100320000909000070B50C460546012A05D0287859
:10033000800600D5EA69002302E0012305E05B1C8A
:10034000934202D2E05C0028F9D1A869E618C01AED
:10035000A861286A18442862284600F08CF904E055
:10036000D5E9012114F8010B9047B442F8D328468F
:1003700000F097F970BD00002DE9F0410646002419
:1003800010687529314616A510D000F09BF9002899
:1003900002DA404213A507E031688A0701D512A5A9
:1003A00002E0490704D511A5012401E000F093F90A
:1003B00000210A2206F1240709E0B0FBF2FCB0FBA1
:1003C000F2F302FB1C00303078541846491C002818
:1003D000F3D123462A463046BDE8F04100F084B907
:1003E000000000002D0000002B0000002000000095
:1003F000F0B40D460188090502D5214C7C4402E089
:100400001F4C7C440E34002100F1240608E002F069
:100410000F071209E75D42EA03721B097754491C72
:1004200052EA0307F3D102780023120704D5702D96
:1004300006D009B1022311342246F0BC00F054B9B1
:1004400001231034F8E770B504460D4621461068C4
:1004500000F041F9024629462046BDE870400023DD
:10046000C6E7D21D22F00703D3E90023C0E70368E3
:10047000126843F0200303600823C3610023B7E739
:10048000F88600002DE9F05F894604464FF0000A27
:10049000DFF874B1FB44C0F820A02046E16888472B
:1004A000002874D0252806D0D4E901219047206A7D
:1004B000401C2062F1E700265F462046E16888473D
:1004C0002028054607DB312D05D2781910F8200CBD
:1004D00008B10643F1E7B00701D526F00406C4F8D9
:1004E0001CA00027C4F818A02A2D09D0284606F021
:1004F000AEF938B304EB8708303DC8F8185019E05E
:1005000059F8041B204604EB87029161E168884793
:10051000012F054618D1E069002820DA26F02006D0
:100520001DE0D8F8180000EB800005EB40003038E3
:10053000C8F818002046E1688847054606F087F9A4
:100540000028EED1012F0AD02E2D08D12046E168D7
:1005500088477F1C0546022F46F02006C4DBA069B1
:10056000002803DA404246F00106A061F00701D0FE
:1005700026F010066C2D0BD0682D09D04C2D39D0EB
:100580006A2D35D0742D35D07A2D33D016E038E071
:10059000E1682F4620468847B842054609D16C2FAE
:1005A00026D04FF48060E168064320468847054620
:1005B00004E06C2F1AD04FF4807006430DB3A5F100
:1005C0004100192802D8203546F400664A462946DB
:1005D000204626604E46FFF7E5FD80B101280BD08E
:1005E000F61D26F0070000F1080956E74020E4E771
:1005F0008020D8E70020D6E706F104094DE7284619
:1006000052E7206ABDE8F09F8886000030B50546B5
:100610000B462A4613F8014B12F8010B08B1A04211
:10062000F8D01CB1002802D06D1CF1E7284630BD7F
:1006300010B5431C02E010F8011B71B18107FAD11B
:100640004FF0013202C88C1A8C4314EAC211F9D05F
:10065000C01A0A0603D0C01E10BDC01A10BD0A047D
:1006600001D0801E10BD0902FCD0401E10BD704795
:1006700070477047704770B5044685690068C106C9
:1006800001D5302600E02026C00707D070BDD4E990
:10069000012130469047206A401C20626D1EF6D52D
:1006A00070BD70B5044685690078C00707D170BD7C
:1006B000D4E9012120209047206A401C20626D1E51
:1006C000F6D570BD09684A0501D540B27047C90525
:1006D000FCD500B2704709684A0501D5C0B2704721
:1006E000C905FCD580B270472DE9F0470D46994603
:1006F0009246044600F124080168880604D5E069A2
:1007000021F01001216000E00120A84201DD471B1B
:1007100000E00027A1697A1902EB0900081AA0611C
:100720002078C00602D42046FFF7A5FF002608E087
:10073000D4E901211AF806009047206A401C761C73
:1007400020624E45F4DB2078C0060AD52046FFF72C
:1007500092FF06E0D4E9012130209047206A401C36
:100760002062381EA7F10107F4DC07E0D4E901217B
:1007700018F805009047206A401C2062281EA5F149
:100780000105F3DC2046FFF78CFF2078000602D538
:100790000220BDE8F0870120FBE711680268006ACB
:1007A000530501D508700AE0D30501D5088006E09D
:1007B000130603D5C217C1E9000200E0086001205A
:1007C000704770472DE9FF4F0C461E464FF0FF372C
:1007D0008BB0D2E90001DDF860800A908A46C1F34F
:1007E0000A5505B93D46002108464FF00000BAF110
:1007F000000F00F4400005DA00EB80004FF44001E8
:1008000001EA50004FEA9059B9F1010F00DDB946F5
:100810000A9850EA4A000ED044F61050A5F2FF356F
:1008200045432F14B8F1000F1ED07542291E1EDD5E
:10083000C9F100021CE0B8F1010F4FF0000001D037
:10084000302103E0F24305E02154401CB042FBDBC1
:1008500030460022002121540B99C1F80880C1E9DB
:1008600000200FB0BDE8F08FBD1B6D1CDEE74A46CF
:1008700000DA694206A800F06BFB06AB93E80700BC
:1008800003AB83E8070050460A9900F06BFC8DE843
:100890000700A0F500501F3800900398002D09DDD7
:1008A00042F21F014A46084403A90390684600F03B
:1008B000CAFE08E0A0F500504A461F3803A903907D
:1008C000684600F0D4FE8DE807000004000C03D059
:1008D0004FF0FF30410800E01046B8F1000F03D0A0
:1008E0000022009215461EE0751E05D400F094FA11
:1008F000303262556D1EF9D5B3460122084302D04D
:1009000000227F1C04E02078302801D100227F1EC5
:10091000002A099786D01DE0112D07DA00F07CFA35
:10092000303262556D1C50EA0102F5D1084302D005
:100930000098C8B10EE00021681E05E0235C625CEF
:1009400063542254401E491C8142F7DBAB46A81B6E
:10095000401E0990002004F80B000B98099AC0F87B
:100960000880C0E9002B7CE711264FF0000859E70A
:100970002DE9F04F88460446D21D22F0070191B0C0
:10098000D1E90001CDE90A0105F04DFF02460B98BF
:10099000C00F01D02D2007E02068810701D52B2052
:1009A00002E0202101EAC000032A099001D0072AB1
:1009B00005DB03464146204600F074FA0BE120783F
:1009C000800601D5E06900E00620B8F1650F814698
:1009D00006D0B8F1660F18D0B8F1670F70D131E0CA
:1009E0000020B9F1110F009001DB112301E009F1A2
:1009F00001030AAA01A90CA8FFF7E4FEDDE90C70C7
:100A0000002609F10105834647E001204B4600908E
:100A10004FF000470AAA01A90CA8FFF7D3FEDDE9B1
:100A20000DB00C995D46002610B909F101000D18B2
:100A3000B9EB050003D4C0F1FF3609F10105A5EBC0
:100A400009002BE0B9F1010F01DA4FF00109002094
:100A5000B9F1110F0090484601DD112300E0034673
:100A60000AAA01A90CA8FFF7ADFEDDE90C704D46FE
:100A700000268346207800070AD4AB4500DA5D469D
:100A800001A8012D04DD411911F8011C302907D0FE
:100A90004F4502DA17F1040F04DA012082460FE015
:100AA0006D1EEEE7002F02DCED1B3E4403E0781CD8
:100AB000A84200DD7D1CB81B00F1010A4FF0004781
:100AC0002078000703D4AA4501DB4FF0FF3A00214C
:100AD000B7F1004F0DF143088DF8431024D00220E8
:100AE0002B23002F01DA7F422D230A21021EA0F1C1
:100AF000010000DC5FB197FBF1FC97FBF1F201FB19
:100B00001C7C17460CF1300C08F801CDEEE7A8F17B
:100B1000010003702188090501D5452100E0652108
:100B2000A0F1010800F8011C09980FA9A1EB080722
:100B3000FF1D00B10120411901EBEA70A1693844A1
:100B4000081A401EA0612078C00602D42046FFF794
:100B500092FD099828B1D4E901219047206A401CF0
:100B600020622078C00622D52046FFF784FD1EE0D3
:100B7000002E04DBB34502DD01A8805D00E03020DB
:100B8000D4E901219047206A401C2062761CAAF11A
:100B900001005FEA000A0AD100F03AF9C068016872
:100BA000405CD4E901219047206A401C2062281E45
:100BB000A5F10105DCDC07E0D4E9012118F8010BFF
:100BC0009047206A401C2062381EA7F10107F3DC21
:100BD0002046FFF766FD032011B043E601694A1C79
:100BE00002610878704700B58FB0CDE9013100216E
:100BF000059105497944CDE9031011466846FFF790
:100C000041FC0FB000BD0000E5FFFFFF0A6802F8DD
:100C1000010B0A60704710B5436913B1AFF3008050
:100C200001E0FFF77FFB012010BD127800F12401E5
:100C30000A7000224A700122EDE711684FF0FF327E
:100C4000E9E70000074B70B50D467B44FFF7CBFF8B
:100C50000446284600F0EAF910B14FF0FF3070BDAD
:100C6000204670BD0F5E00002DE9FF5F15468A46E5
:100C70000446DFF8AC80F8440027D8E900103E466F
:100C8000CDE9001010E03AF816106A4602A800F00C
:100C9000D1F9411C07D02178890603D5E2693918BA
:100CA00091420DD80744761C2078800602D5E06971
:100CB000B84205DDAE42E6DB3AF816000028E2D184
:100CC000A069C01BA0612046FFF7D5FCD8E9001041
:100CD000CDE90010002017E03AF818106A4602A883
:100CE00000F0A8F9B0F1FF3F81460BD000250DF1CF
:100CF000080B05E0D4E901211BF8050090476D1CA5
:100D00004D45F7D308F10100B0428046E4DB206A8C
:100D1000384420622046FFF7C4FCBDE8FF9F000076
:100D2000BA7E00002DE9F0418046D21D22F0070274
:100D30000025D2E90002F52915A614D0011E72F192
:100D4000000106DA0023D0EB030063EB020211A6D8
:100D500008E0D8F800108B0701D50FA602E049077C
:100D600001D50EA601251146002408F1240704E050
:100D700000F052F830323A55641C50EA0102F7D1C3
:100D80002B46324621464046BDE8F041FFF7ACBC59
:100D9000000000002D0000002B00000020000000DB
:100DA00030B4002100F1240408E002F00705D20865
:100DB000303542EA4372DB086554491C52EA0305A8
:100DC000F3D10468002310A2250708D504F02004FD
:100DD0000C4304D0C46901230CA2641EC46130BC5E
:100DE000FFF782BC10B5044621461068FFF773FC7C
:100DF00002462046BDE810400023D1E7D21D22F074
:100E00000701D1E90023CBE700000000300000001B
:100E100000487047B006002030B5B0F10A024FEA32
:100E2000900E71F100034EEA817EB0EB0E0061EB93
:100E300091014FEA101E4EEA017E10EB0E0041EBCD
:100E400011114FEA102E4EEA016E10EB0E0041EB2D
:100E500011214FEA104E4EEA014E10EB0E0041EB0D
:100E60001141401841F100014FEAD00040EA4170C1
:100E70004FEAD10110EB80054FEA810444EA9074F7
:100E800044EB01046D1944EB0404521BA3414FF0E1
:100E9000000348BF0A3200D530BD401C41F10001BB
:100EA00030BD00002DE9F0411F46044603260168CD
:100EB000072A01F4006004DB08B116A505E016A5B9
:100EC00003E008B115A500E015A521F01000206091
:100ED000A069C01EA0610FB1401EA0612046FFF7AF
:100EE000CAFB4FB1D4E9012138469047206A401C23
:100EF0002062C01C206206E0206AFAE7D4E90121E2
:100F000015F8010B9047761EF8D22046FFF7C9FB73
:100F1000BDE8F0814E414E006E616E00494E4600C4
:100F2000696E660010B5436913B1AFF3008001E04C
:100F3000FFF79AFE012010BD128800F1240182847F
:100F40000022C2840122EDE711684FF0FF32E9E789
:100F50002DE9F047814616468AB0334878440DC8DB
:100F60008DE80D0030487844801C03AC0DC884E83F
:100F70000D0041F69B300844372190FBF1F290FBC5
:100F8000F1F5A5F1800501FB12041B3C02D564427A
:100F9000012000E00020DFF890A080460027FA44FE
:100FA000AAF1BE0A0DE0E00709D03246684607EB19
:100FB00047010AEB810100F05AFB8DE8070064103D
:100FC0007F1C002CEFD1184F7F44AC3F18E0E8079E
:100FD00014D007EB04100DF1180A90E80E008AE80F
:100FE0000E00C068F04201D198190890324606A957
:100FF00003A800F03CFB03AB83E807006D10641C02
:10100000002DE4D132466946B8F1000F03A802D0A2
:1010100000F019FB01E000F02AFBC9E90001C9F862
:1010200008200AB0BDE8F087587C0000007B00F083
:101030008000704770B516460C46054600F044F82F
:10104000036893F80101012806D0FF2C0FD8185D22
:1010500068B101202C7070BDD3F8070132462146DB
:1010600003F2071303442846BDE8704018474FF0C9
:10107000FF3070BD00487047900600207546FFF7AE
:10108000F9FFAE4605006946534620F00700854645
:1010900018B020B5FFF7FEF8BDE820404FF000067D
:1010A0004FF000074FF000084FF0000B21F0070150
:1010B000AC46ACE8C009ACE8C009ACE8C009ACE893
:1010C000C0098D467047000010B5FFF7A1FE001D56
:1010D00010BD00BF015E00000446AFF30080204653
:1010E000FFF7C3F84FF0013C50F8042B51F8043BD4
:1010F0009A4221D1A2EB0C03934313EACC1317D1EC
:1011000050F8042B51F8043B9A4215D1A2EB0C0382
:10111000934313EACC130BD150F8042B51F8043B42
:101120009A4209D1A2EB0C03934313EACC13DBD010
:101130004FF00000704700BFD01A01BAB1FA81F138
:1011400001F0180122FA01F0CB40C1F12001DBB21D
:10115000C0B2C01A2CFA01F3D11A914311EAC3119B
:10116000E6D170475FEA400C08BF91F0000F4FEAEC
:101170008C234FEAC12243EA51514FEA1C5018BF59
:1011800000F5F0404FEA300018BF41F000415FEA3F
:101190006C5C00F02980BCF1FF3F08BF40F080404C
:1011A0007047130C06BF12044FF0100C4FF0000CE8
:1011B000130E04BF12020CF1080C130F04BF12012E
:1011C0000CF1040C930F04BF92000CF1020CD30F2E
:1011D00004BF52000CF1010C11464FF00002A0F1C7
:1011E0001F00A0EB0C00704711F0004F08BF7047C4
:1011F00031F000413FF4D5AF0B0C06BF09044FF0AE
:10120000100C4FF0000C0B0E04BF09020CF1080C7F
:101210000B0F04BF09010CF1040C8B0F04BF8900F4
:101220000CF1020CCB0F04BF49000CF1010CCCF106
:101230002003A0EB0C0022FA03F302FA0CF241EABD
:10124000030100F10100704720F07F4C80EA0300A9
:1012500023F07F47ACEB070303F57C5300F000401D
:1012600003F1FF032DE980494FEA154B09B44FEA1A
:10127000144325EA0B4E24EA03480FF2042606EB3A
:10128000132749083E785FEA320203FB0667C7F579
:10129000000707FB06F64FEA54374FEAD64606F139
:1012A000020607FB066CCCF1005C4FEA1C472CEAF7
:1012B000074C07FB06F40CFB06F504EB15464FEA5A
:1012C000961634BF00204FF000404FEAD13706FB9E
:1012D00007FC4FEA1C4C0CFB0BF7D21B03FB0CF773
:1012E00061EB07010CFB0EF7B0EB074072EB174206
:1012F0000CFB08F734BFA2EB0742B2EB074261EBED
:1013000017414FEA0C444FEA910706FB07FC4FEAEE
:101310001C4C0CFB0BF7B0EBC74072EB573203FBD6
:101320000CF734BFA2EBC742B2EBC74261EB5731B7
:101330000CFB0EF7B0EBC70072EB57720CFB08F713
:1013400034BFA2EBC702B2EBC70261EB5771039F38
:101350004FEA816141EA921104EBCC044FEAD137A4
:101360004FEA826206FB07FC42EA90124FEA806075
:101370004FEA1C4C0CFB0BF7D21B03FB0CF761EB89
:1013800007010CFB0EF7B0EB074072EB17420CFBAA
:1013900008F734BFA2EB0742B2EB074261EB1741FB
:1013A0004FEA8C554FEA910704EB9C2406FB07FC9F
:1013B0004FEA1C4C0CFB0BF7B0EBC74072EB5732FB
:1013C00003FB0CF734BFA2EBC742B2EBC74261EBA1
:1013D00057310CFB0EF7B0EBC70072EB57720CFBEA
:1013E00008F734BFA2EBC702B2EBC70261EB57713B
:1013F00015EB4C254FEA816141EA92114FEA826276
:101400004FEAD13742EA901206FB07FC44F1000490
:101410004FEA80604FEA1C4C0CFB0BF7D21B03FB1E
:101420000CF761EB07010CFB0EF7B0EB074072EB1A
:1014300017420CFB08F734BFA2EB0742B2EB07429E
:1014400061EB174115EB1C154FEA813141EA9241DE
:101450004FEA823242EA90424FEA80304FEA0C76FD
:1014600044F1000448EA03434EEA0B484FF0000EF3
:10147000B2EB080C71EB030724BF624639464EEB12
:101480000E0E4FF0000B0018524149414BEB0B0B75
:10149000B2EB080C71EB03077BF1000B24BF624633
:1014A00039464EEB0E0E4FF0000B001852414941E9
:1014B0004BEB0B0BB2EB080C71EB03077BF1000B52
:1014C00024BF624639464EEB0E0E51EA020718BFA2
:1014D00046F0010616EB0E7655F1000254F10001BC
:1014E00003D5BDE88901BDE80088BDE88901BDE8F4
:1014F0000048B619524141EB0101A3F101037047C5
:1015000080807F7E7D7C7B7A797877767675747340
:10151000727171706F6E6E6D6C6C6B6A6A696868FF
:10152000676666656464636362616160605F5F5E95
:101530005E5D5D5C5C5B5B5A5A595958585757560B
:101540005655555554545353525252515150505070
:101550004F4F4F4E4E4D4D4D4C4C4C4B4B4B4A4AC2
:101560004A49494948484847474747464646454506
:10157000454444444443434343424242424141413F
:10158000002B26D4770021D01CB54FEA370703B4CF
:101590004FF010004FF010014FF000000FBCBDE8FD
:1015A00010400BF1010BBBF1010F08BF5FEA1707F9
:1015B00022BF12F1010211F101014FF0004143F18C
:1015C000000300F0004043EA00007047F9D35708D9
:1015D000DAE746EA064613F1400F4FEA16461FDDEA
:1015E00013F1200FDFBF16430A46002120335B4270
:1015F000C8D0C3F1200746EA064602FA07F74FEAC9
:10160000164646EA0706C3F1200722FA03F201FA5A
:1016100007F721FA03F14FF0000342EA0702B1E7AE
:1016200046EA020646EA06464FEA164646EA01063A
:10163000BCBF46EA0646360C4FF000034FF00002EE
:101640004FF000019EE72DE9C048934630B491E881
:10165000380007C831EA400C48BF34EA430C03D5D0
:10166000FFF7F2FDFFF78CFFF0BCBDE800882DE925
:10167000C048934630B491E8380007C810F0804F56
:1016800008BF13F0804F03D100F005F8FFF778FF93
:10169000F0BCBDE8008820F07F4780EA030023F01B
:1016A0007F4C07EB0C03A3F57C5300F00040A3F143
:1016B000FE0392F0000F00F0B38095F0000F00F0F1
:1016C00077802DE901494FEA11404FEA144621EA9B
:1016D000004800FB06FC24EA064708FB06F607FB69
:1016E00008F800FB07F718EB06484CEB164C4FEADE
:1016F000124B18EB07484FEA15464CEB174022EA0D
:101700000B4E0BFB06FC25EA06470EFB06F607FB15
:101710000EFE0BFB07F71EEB064E4CEB164C4FF084
:1017200000061EEB074E4CEB174B18EB0B0840F175
:10173000000018EB0E0B58EB000840F100008F1A68
:101740004FF000013CBFC943661B14BFB5EB040C4E
:1017500000213CBFC943F61B4FEA17444EEA8E0EE8
:1017600027EA04454FEA1C4704FB07622CEA074CB2
:1017700005FB07F70CFB05F604FB0CFC16EB074614
:1017800042EB174216EB0C4642EB1C421BEB0606E3
:1017900058EB0202414146EA9E0601D5BDE80189A7
:1017A000B619524141EB0101A3F10103BDE80189E2
:1017B0004FEA14454FEA114724EA054621EA074C4F
:1017C00005FB07F406FB07F70CFB06F105FB0CFC19
:1017D00011EB074144EB17444FEA124711EB0C4160
:1017E00044EB1C4422EA074C05FB07F206FB07F713
:1017F0000CFB06F605FB0CFC16EB074642EB17420A
:1018000016EB0C4642EB1C456A1854F1000148BF28
:101810007047B619524141EB0101A3F10103704732
:1018200095F0000F37D04FEA11424FEA144721EAF2
:10183000024624EA074C02FB07F106FB07F70CFB04
:1018400006F402FB0CFC14EB074441EB17414FEA92
:10185000154714EB0C4441EB1C4125EA074C02FBF5
:1018600007F506FB07F70CFB06F602FB0CFC16EB74
:10187000074645EB174516EB0C4645EB1C42121983
:1018800051F1000148BF7047B619524141EB0101C7
:10189000A3F1010370474FEA14454FEA114724EAC8
:1018A000054621EA074C05FB07F106FB07F70CFB91
:1018B00006F24FF0000605FB0CFC12EB074241EB71
:1018C000174112EB0C4251EB1C4148BF7047921874
:1018D00041EB0101A3F1010370470146C86C80B2DE
:1018E00070470246002013680B400BB1012000E056
:1018F00000207047F0B504460D4600200021092D58
:1019000011DDE068A5F10A0606EB4607072606FA90
:1019100007F18843A5F10A0606EB460603FA06F12D
:101920000843E0600CE0206905EB4507072606FA4E
:1019300007F1884305EB450603FA06F108432061E9
:10194000072A0FDA606B561E06EB86071F2606FA7B
:1019500007F18843561E06EB860605FA06F1084392
:10196000606322E00D2A0FDA206BD61F06EB860794
:101970001F2606FA07F18843D61F06EB860605FAEE
:1019800006F10843206310E0E06AA2F10D0606EBC1
:1019900086071F2606FA07F18843A2F10D0606EB1B
:1019A000860605FA06F10843E062F0BD21B18268BF
:1019B00042F4A002826003E0826822F4A002826006
:1019C000704700BFFEE7704751B18200A2F1C042EC
:1019D000126842F001038200A2F1C042136009E0E4
:1019E0008200A2F1C0421268034B1A408300A3F1A7
:1019F000C0431A6070470000FEFF0F00D0E90112DB
:101A00001143C2681143026911434269114382695B
:101A10001143C2691143026A1143426A1143826A47
:101A20001143C26A1143026B114302689200A2F192
:101A3000C0421160816808290BD101688900A1F1B9
:101A4000C041096841F0400201688900A1F1C0412C
:101A50000A60416B0968426B526841EA0211426BAD
:101A6000926841EA0221426B928941EA0241426B4B
:101A7000128A41EA0251426B127D41EA0261426BD5
:101A8000926911430268521C9200A2F1C042116097
:101A9000C16AB1F5804F1BD1816B0968826B5268B6
:101AA00041EA0211826B926841EA0221826B128A3A
:101AB00041EA0251826B127D41EA0261826B9269B6
:101AC000114302689200A2F1C042C2F8041107E07B
:101AD0006FF0704201688900A1F1C041C1F8042192
:101AE00070472DE9F0410246002500260020002322
:101AF0000024002791F803C00CF00F0591F803C0F3
:101B00000CF0100CBCF1000F03D091F802C04CEAAD
:101B1000050591F800C0BCF1000F31D01468002019
:101B20002BE04FF0010C0CFA00F3B1F800C00CEA06
:101B300003069E4220D183004FF00F0C0CFA03F7EE
:101B4000BC4305FA03FC4CEA040491F803C0BCF161
:101B5000280F06D14FF0010C0CFA00FCC2F814C09B
:101B60000AE091F803C0BCF1480F05D14FF0010C19
:101B70000CFA00FCC2F810C0401C0828D1D3146035
:101B8000B1F800C0BCF1FF0F34DD546800202EE036
:101B900000F1080C4FF0010808FA0CF3B1F800C08E
:101BA0000CEA03069E4221D183004FF00F0C0CFA81
:101BB00003F7BC4305FA03FC4CEA040491F803C0A4
:101BC000BCF1280F05D100F1080C08FA0CF8C2F896
:101BD000148091F803C0BCF1480F07D100F1080C44
:101BE0004FF0010808FA0CF8C2F81080401C0828D1
:101BF000CED35460BDE8F0810246002093680B40CC
:101C00000BB1012000E00020704741617047016185
:101C10007047000010B504460723012221460948F9
:101C2000FFF768FE01210748FFF7C0FE00BF022151
:101C30000448FFF756FE0028F9D00248FFF74DFE92
:101C400010BD0000002401402DE9F04107460C467C
:101C50000025002608E03846FFF7DCFF0544052094
:101C600004F0B0FE701CC6B2A642F4DBB5FBF4F083
:101C700080B2BDE8F08100BFFEE7000008B5012199
:101C8000442004F019FA1C20ADF8000048208DF81B
:101C9000030069460648FFF724FF0120ADF8000065
:101CA00028208DF8030069460248FFF71AFF08BD97
:101CB000001801400008014010B5044614B101208D
:101CC0002C4908702B480078002837D010212A486A
:101CD000FFF792FF78B108212748FFF78DFF50B139
:101CE00004212548FFF788FF28B101212348FFF789
:101CF00083FF012822D10A2004F064FE00201D4940
:101D0000087010211C48FFF777FF08B9012010BDAB
:101D100008211948FFF770FF08B90220F7E70421EE
:101D20001548FFF769FF08B90320F0E701211348C0
:101D3000FFF762FF01281BD10420E8E710210E48BD
:101D4000FFF75AFF012813D108210B48FFF754FF72
:101D500001280DD104210848FFF74EFF012807D1C3
:101D600001210648FFF748FF10B90120014908701A
:101D70000020CCE7220000200018014000080140AC
:101D800070B5044600261748058840884543154825
:101D9000808846F60401884216D1124880790128CD
:101DA00012D100200F4988712A2048812B20888178
:101DB0000021084603F028FF01200A4988712B20E2
:101DC00048812A20888103E00021084603F01CFF97
:101DD00004F0C2F8002602E003480480761CAE42FC
:101DE000FAD370BDD00100200008006C10B5044685
:101DF000002C66D16C498871F02008804FF4A070E7
:101E000048800846808849F2413188420BD06648B4
:101E1000808846F60401884205D06348808845F2F0
:101E2000103188421AD12C205F4908812A2048812C
:101E30002B2088810846808846F60401884205D018
:101E40005948808845F21031884206D14FF4A0707D
:101E5000554908804FF4F0704880A1E052488088CE
:101E600045F21051884210D14FF430504E4908814C
:101E70004FF4285048814FF42C5088814FF4F07073
:101E800008804FF4487048808AE04748808841F6CF
:101E9000631188420DD12C20434908812B204881B1
:101EA0002A2088814FF4F07008804FF448704880F1
:101EB00076E022203C490881202048812120888129
:101EC0006EE00120384988714FF4A0700880F0203E
:101ED00048800846808849F24131884205D032481E
:101EE000808845F21031884207D12C202E49088184
:101EF0002A2048812B2088813FE02B48808846F6A5
:101F00000401884207D12C20274908812B204881D1
:101F10002A20888131E02448808845F21051884287
:101F200010D14FF43050204908814FF42850488197
:101F30004FF42C5088814FF4487008804FF4F070B3
:101F400048801AE01848808841F6631188420DD114
:101F50002C20154908812A2048812B2088814FF4A4
:101F6000487008804FF4F070488006E022200E4947
:101F7000088121204881202088810B48808846F6EE
:101F80000401884205D00848808845F21031884213
:101F900006D14FF4F070044908804FF4A0704880D7
:101FA000002003F0BBFC10BDD001002030B503467B
:101FB0000C4615465A48808849F24131884205D07E
:101FC0005748808845F21031884214D154494889D5
:101FD00003F0BCFF181203F0B3FFD8B203F0B0FF58
:101FE0004F49888903F0B2FF201203F0A9FFE0B245
:101FF00003F0A6FF8CE04A48808845F210518842E1
:1020000020D14749488903F0A1FF181203F098FF37
:1020100043494989491C88B203F098FFD8B203F0BC
:102020008FFF3F49888903F091FF201203F088FF5A
:102030003B498989491C88B203F088FFE0B203F06C
:102040007FFF65E03648808841F66311884228D1D9
:102050003348807920B932480088401EC01A83B2C4
:102060002F49488903F072FF181203F069FFD8B2B4
:1020700003F066FF181203F063FFD8B203F060FFAD
:102080002749888903F062FF201203F059FFE0B26C
:1020900003F056FF201203F053FFE0B203F050FFAD
:1020A00036E01F48808846F6040188421DD11C484E
:1020B0008079012804D11A480088401EC01A83B2D2
:1020C0001749488903F042FF181203F039FFD8B2CC
:1020D00003F036FF1249888903F038FF201203F01D
:1020E0002FFFE0B203F02CFF12E00D4880790128A9
:1020F00004D10B480088401EC01A83B208494889A1
:10210000194603F033FF06498889214603F02EFF64
:102110000348008903490880881C058030BD000001
:10212000D0010020FE07006C00B59FB0012108021D
:1021300003F092FF01214FF4B47003F0BDFF0120C2
:10214000ADF8780010208DF87B0003208DF87A0020
:102150001EA9FE48FFF7C5FC4CF23370ADF87800BD
:1021600018208DF87B0003208DF87A001EA9F8480E
:10217000FFF7B7FC4FF68070ADF8780018208DF8A7
:102180007B0003208DF87A001EA9F248FFF7A9FC16
:1021900041F20100ADF8780018208DF87B00032093
:1021A0008DF87A001EA9EC48FFF79BFC01200890EF
:1021B000002009900F200A9000200B900C900D90A9
:1021C0000E9001900290032003900020049005904F
:1021D0000690079006200F9000201090119010207C
:1021E00012900020139015901490169017904FF4B1
:1021F00080501890002019904FF480401A900020D1
:102200001B9008A81C9001A81D900FA8FFF7F6FBD3
:1022100001210620FFF7D8FB322004F0D3FB002079
:1022200003F046FBCD49888008468088FF280ADBFA
:10223000084680884FF6FF71884204D0C7488088DE
:10224000B0F5134F7ED1D32003F080FE03F026FBC0
:10225000C249888003F022FBC049888003F01EFB3E
:10226000BE498880084680884FF6FF7101EA002049
:10227000BA49888003F012FBB84989880843B749F6
:1022800088800846808849F2413188425AD0BF2070
:1022900003F05CFE03F002FBB049888003F0FEFA15
:1022A000AE49888003F0FAFAAC49888003F0F6FA68
:1022B000AA498880084680884FF6FF7101EA00200D
:1022C000A649888003F0EAFAA44989880843A3490B
:1022D00088800846808846F6040188427AD0D42057
:1022E00003F034FE03F0DAFA9C49888003F0D6FA52
:1022F0009A49888003F0D2FA9849888008468088F5
:102300004FF6FF7101EA00209449888003F0C6FA75
:10231000924989880843914988800846808845F217
:102320001031884256D04FF45A4003F00FFE03F0AC
:10233000B5FA8A4988804FF45B4003F007FE03F04A
:10234000ADFA00E046E085498880084680884FF66F
:10235000FF7101EA0020814988804FF45C4003F05E
:10236000F5FD03F09BFA7D49898808437B49888005
:1023700008468088B0F5004F02D145F210508880A1
:102380007648808845F21051884223D0A12003F07E
:10239000DDFD03F083FA7149888003F07FFA6F490D
:1023A0008880084680884FF6FF7101EA00206B495B
:1023B000888003F073FA69498988084367498880EF
:1023C0000846808845F26171884203D141F6631066
:1023D000624988806148818861A0FDF781FF5F487C
:1023E000808849F2413188427ED1CF2003F0AEFD92
:1023F000002003F0A5FDC12003F0A2FD302003F072
:102400009FFDED2003F0A2FD642003F099FD032061
:1024100003F096FD122003F093FD812003F090FD60
:10242000E82003F093FD852003F08AFD102003F0DF
:1024300087FD7A2003F084FDCB2003F087FD39204F
:1024400003F07EFD2C2003F07BFD002003F078FDDF
:10245000342003F075FD022003F072FDF72003F035
:1024600075FD202003F06CFDEA2003F06FFD0020D5
:1024700003F066FD002003F063FDC02003F066FD5D
:102480001B2003F05DFDC12003F060FD012003F07F
:1024900057FDC52003F05AFD302003F051FD3020D8
:1024A00003F04EFDC72003F051FDB72003F048FDB7
:1024B000362003F04BFD482003F042FD3A2003F0A4
:1024C00045FD552003F03CFDB12003F03FFD002009
:1024D00003F036FD1A2003F033FDB62003F036FD7D
:1024E0000A2003F02DFD00E0AAE0A22003F028FD61
:1024F000F22003F02BFD002003F022FD262003F044
:1025000025FD012003F01CFDE02003F01FFD0F203E
:1025100003F016FD2A2003F013FD282003F010FD20
:10252000082003F00DFD0E2003F00AFD082003F043
:1025300007FD542003F004FDA92003F001FD432012
:1025400003F0FEFC0A2003F0FBFC11E0000C01404C
:10255000001401400018014000200140D00100207B
:10256000204C43442049443A25780D0A00000000DD
:102570000F2003F0E5FC002003F0E2FC002003F054
:10258000DFFC002003F0DCFC002003F0D9FCE1209C
:1025900003F0DCFC002003F0D3FC152003F0D0FC9A
:1025A000172003F0CDFC072003F0CAFC112003F034
:1025B000C7FC062003F0C4FC2B2003F0C1FC56200E
:1025C00003F0BEFC3C2003F0BBFC052003F0B8FC8C
:1025D000102003F0B5FC0F2003F0B2FC3F2003F005
:1025E000AFFC3F2003F0ACFC0F2003F0A9FC2B2034
:1025F00003F0ACFC002003F0A3FC002003F0A0FCDF
:10260000012003F09DFC3F2003F09AFC2A2003F0F8
:102610009DFC002003F094FC002003F091FC0020BE
:1026200003F08EFCEF2003F08BFC112003F08EFCF6
:10263000782004F0C7F9292003F088FC03F01DB9C5
:10264000FE48808846F6040188427CD1112003F0C0
:102650007DFC142004F0B6F9D02003F077FC0720AD
:1026600003F06EFC422003F06BFC1D2003F068FCBD
:10267000D12003F06BFC002003F062FC1A2003F071
:102680005FFC092003F05CFCD22003F05FFC01201A
:1026900003F056FC222003F053FCC02003F056FC4C
:1026A000102003F04DFC3B2003F04AFC002003F017
:1026B00047FC022003F044FC112003F041FCC5203C
:1026C00003F044FC032003F03BFCC82003F03EFC75
:1026D000002003F035FC252003F032FC212003F01C
:1026E0002FFC052003F02CFC002003F029FC0A201D
:1026F00003F026FC652003F023FC252003F020FCDA
:10270000772003F01DFC502003F01AFC0F2003F08B
:1027100017FC002003F014FCF82003F017FC012044
:1027200003F00EFCFE2003F011FC002003F008FC77
:10273000022003F005FC202003F008FC362003F003
:1027400005FC082000E02CE003F0FAFB3A2003F03F
:10275000FDFB552003F0F4FB2B2003F0F7FB0020DA
:1027600003F0EEFB002003F0EBFB012003F0E8FB9D
:102770003F2003F0E5FB2A2003F0E8FB002003F0F4
:10278000DFFB002003F0DCFB012003F0D9FBDF209E
:1027900003F0D6FB782004F015F9292003F0D6FBCE
:1027A0004CE7A648808845F21031884240F07C878B
:1027B000ED2003F0CBFB012003F0C2FBFE2003F071
:1027C000BFFBEE2003F0C2FBDE2003F0B9FB2120AB
:1027D00003F0B6FBF12003F0B9FB012003F0B0FBDE
:1027E000DF2003F0B3FB102003F0AAFBC42003F0AA
:1027F000ADFB8F2003F0A4FBC62003F0A7FB002055
:1028000003F09EFBE22003F09BFBE22003F098FB29
:10281000E22003F095FBBF2003F098FBAA2003F011
:102820008FFBB02003F092FB0D2003F089FB00200A
:1028300003F086FB0D2003F083FB002003F080FBF8
:10284000112003F07DFB002003F07AFB192003F038
:1028500077FB002003F074FB212003F071FB0020C4
:1028600003F06EFB2D2003F06BFB002003F068FBF0
:102870003D2003F065FB002003F062FB5D2003F0C8
:102880005FFB002003F05CFB5D2003F059FB0020A0
:1028900003F056FBB12003F059FB802003F050FBFE
:1028A000002003F04DFB8B2003F04AFB002003F0D7
:1028B00047FB962003F044FB002003F041FBB220CD
:1028C00003F044FB002003F03BFB002003F038FB47
:1028D000022003F035FB002003F032FB032003F05D
:1028E0002FFB002003F02CFBB32003F02FFB002074
:1028F00003F026FB002003F023FB002003F020FB65
:10290000002003F01DFB002003F01AFB002003F061
:1029100017FB002003F014FB002003F011FB002044
:1029200003F00EFB002003F00BFB002003F008FB7C
:10293000002003F005FB002003F002FB002003F061
:10294000FFFA002003F0FCFA002003F0F9FA00205F
:1029500003F0F6FA002003F0F3FA002003F0F0FA97
:10296000002003F0EDFA002003F0EAFA002003F063
:10297000E7FA002003F0E4FA002003F0E1FAB420C3
:1029800003F0E4FA8B2003F0DBFA002003F0D8FA1E
:10299000962003F0D5FA002003F0D2FAA12003F02C
:1029A000CFFA002003F0CCFAB52003F0CFFA0220D2
:1029B00003F0C6FA002003F0C3FA032003F0C0FAC4
:1029C000002003F0BDFA042003F0BAFA002003F05F
:1029D000B7FAB62003F0BAFA002003F0B1FA0020EB
:1029E00003F0AEFAB72003F0B1FA002003F0A8FA22
:1029F000002003F0A5FA3F2003F0A2FA002003F024
:102A00009FFA5E2003F09CFA002003F099FA6420FC
:102A100003F096FA002003F093FA8C2003F090FA6A
:102A2000002003F08DFAAC2003F08AFA002003F0B6
:102A300087FADC2003F084FA002001E0D0010020B6
:102A400003F07EFA702003F07BFA002003F078FA9E
:102A5000902003F075FA002003F072FAEB2003F0E7
:102A60006FFA002003F06CFADC2003F069FA002012
:102A700003F066FAB82003F069FA002003F060FA68
:102A8000002003F05DFA002003F05AFA002003F062
:102A900057FA002003F054FA002003F051FA002006
:102AA00003F04EFA002003F04BFABA2003F04EFA7E
:102AB000242003F045FA002003F042FA002003F03E
:102AC0003FFA002003F03CFAC12003F03FFA202037
:102AD00003F036FA002003F033FA542003F030FA02
:102AE000002003F02DFAFF2003F02AFA002003F063
:102AF00027FAC22003F02AFA0A2003F021FA002064
:102B000003F01EFA042003F01BFA002003F018FA69
:102B1000C32003F01BFA3C2003F012FA002003F05C
:102B20000FFA3A2003F00CFA002003F009FA3920DA
:102B300003F006FA002003F003FA372003F000FA4E
:102B4000002003F0FDF93C2003F0FAF9002003F027
:102B5000F7F9362003F0F4F9002003F0F1F9322000
:102B600003F0EEF9002003F0EBF92F2003F0E8F971
:102B7000002003F0E5F92C2003F0E2F9002003F037
:102B8000DFF9292003F0DCF9002003F0D9F9262031
:102B900003F0D6F9002003F0D3F9242003F0D0F994
:102BA000002003F0CDF9242003F0CAF9002003F03F
:102BB000C7F9232003F0C4F9002003F0C1F93C2039
:102BC00003F0BEF9002003F0BBF9362003F0B8F99A
:102BD000002003F0B5F9322003F0B2F9002003F031
:102BE000AFF92F2003F0ACF9002003F0A9F92C2055
:102BF00003F0A6F9002003F0A3F9292003F0A0F9BF
:102C0000002003F09DF9262003F09AF9002003F03C
:102C100097F9242003F094F9002003F091F924207F
:102C200003F08EF9002003F08BF9232003F088F9DC
:102C3000002003F085F9C42003F088F9622003F036
:102C40007FF9002003F07CF9052003F079F90020DA
:102C500003F076F9842003F073F9002003F070F993
:102C6000F02003F06DF9002003F06AF9182003F05A
:102C700067F9002003F064F9A42003F061F9002053
:102C800003F05EF9182003F05BF9002003F058F917
:102C9000502003F055F9002003F052F90C2003F006
:102CA0004FF9002003F04CF9172003F049F90020F8
:102CB00003F046F9952003F043F9002003F040F9B2
:102CC000F32003F03DF9002003F03AF9E62003F089
:102CD00037F9002003F034F9C52003F037F932202A
:102CE00003F02EF9002003F02BF9442003F028F91B
:102CF000002003F025F9652003F022F9002003F0FD
:102D00001FF9762003F01CF9002003F019F9882040
:102D100003F016F9002003F013F9C62003F016F9AA
:102D2000202003F00DF9002003F00AF9172003F02A
:102D300007F9002003F004F9012003F001F9002055
:102D400003F0FEF8C72003F001F9002003F0F8F8C3
:102D5000002003F0F5F8002003F0F2F8002003F063
:102D6000EFF8C82003F0F2F8002003F0E9F80020A3
:102D700003F0E6F8002003F0E3F8002003F0E0F8A9
:102D8000C92003F0E3F8002003F0DAF8002003F094
:102D9000D7F8002003F0D4F8002003F0D1F8002089
:102DA00003F0CEF8002003F0CBF8002003F0C8F8C1
:102DB000002003F0C5F8002003F0C2F8002003F063
:102DC000BFF8002003F0BCF8002003F0B9F80020A1
:102DD00003F0B6F8002003F0B3F8002003F0B0F8D9
:102DE000002003F0ADF8E02003F0B0F8162003F067
:102DF000A7F8002003F0A4F81C2003F0A1F800209D
:102E000003F09EF8212003F09BF8002003F098F8CF
:102E1000362003F095F8002003F092F8462003F0E6
:102E20008FF8002003F08CF8522003F089F800207E
:102E300003F086F8642003F083F8002003F080F8A4
:102E40007A2003F07DF8002003F07AF88B2003F05D
:102E500077F8002003F074F8992003F071F800204F
:102E600003F06EF8A82003F06BF8002003F068F878
:102E7000B92003F065F8002003F062F8C42003F0E5
:102E80005FF8002003F05CF8CA2003F059F8002036
:102E900003F056F8D22003F053F8002003F050F866
:102EA000D92003F04DF8002003F04AF8E02003F0A9
:102EB00047F8002003F044F8F32003F041F8002025
:102EC00003F03EF8E12003F041F8162003F038F853
:102ED000002003F035F81C2003F032F8002003F046
:102EE0002FF8222003F02CF8002003F029F83620D8
:102EF00003F026F8002003F023F8452003F020F823
:102F0000002003F01DF8522003F01AF8002003F00F
:102F100017F8642003F014F8002003F011F87A2069
:102F200003F00EF8002003F00BF88B2003F008F8F4
:102F3000002003F005F8992003F002F8002002F0C9
:102F4000FFFFA82002F0FCFF002002F0F9FFB920EB
:102F500002F0F6FF002002F0F3FFC42002F0F0FFC1
:102F6000002002F0EDFFCA2002F0EAFF002002F08C
:102F7000E7FFD22002F0E4FF002002F0E1FFD820BA
:102F800002F0DEFF002002F0DBFFE02002F0D8FFBD
:102F9000002002F0D5FFF32002F0D2FF002002F063
:102FA000CFFFE22002F0D2FF052002F0C9FF00208F
:102FB00002F0C6FF0B2002F0C3FF002002F0C0FFAA
:102FC0001B2002F0BDFF002002F0BAFF342002F007
:102FD000B7FF002002F0B4FF442002F0B1FF002050
:102FE00002F0AEFF4F2002F0ABFF002002F0A8FF7E
:102FF000612002F0A5FF002002F0A2FF792002F07C
:103000009FFF002002F09CFF882002F099FF002023
:1030100002F096FF972002F093FF002002F090FF4D
:10302000A62002F08DFF002002F08AFFB72002F0F8
:1030300087FF002002F084FFC22002F081FF002001
:1030400002F07EFFC72002F07BFF002002F078FF35
:10305000D12002F075FF002002F072FFD62002F0AE
:103060006FFF002002F06CFFDD2002F069FF0020FE
:1030700002F066FFF32002F063FF002002F060FF21
:10308000E32002F063FF052002F05AFF002002F067
:1030900057FF0A2002F054FF002002F051FF1C20CD
:1030A00002F04EFF002002F04BFF332002F048FFF9
:1030B000002002F045FF442002F042FF002002F011
:1030C0003FFF502002F03CFF002002F039FF622059
:1030D00002F036FF002002F033FF782002F030FFCC
:1030E000002002F02DFF882002F02AFF002002F0CD
:1030F00027FF972002F024FF002002F021FFA620E6
:1031000002F01EFF002002F01BFFB72002F018FFA4
:10311000002002F015FFC22002F012FF002002F092
:103120000FFFC72002F00CFF002002F009FFD120A2
:1031300002F006FF002002F003FFD52002F000FF9E
:10314000002002F0FDFEDD2002F0FAFE002002F079
:10315000F7FEF32002F0F4FE002002F0F1FEE4207E
:1031600002F0F4FE012002F0EBFE002002F0E8FE87
:10317000012002F0E5FE002002F0E2FE022002F053
:10318000DFFE002002F0DCFE2A2002F0D9FE002043
:1031900002F0D6FE3C2002F0D3FE002002F0D0FE6A
:1031A0004B2002F0CDFE002002F0CAFE5D2002F0AE
:1031B000C7FE002002F0C4FE742002F0C1FE002011
:1031C00002F0BEFE842002F0BBFE002002F0B8FE3A
:1031D000932002F0B5FE002002F0B2FEA22002F021
:1031E000AFFE002002F0ACFEB32002F0A9FE0020EA
:1031F00002F0A6FEBE2002F0A3FE002002F0A0FE18
:10320000C42002F09DFE002002F09AFECD2002F0C4
:1032100097FE002002F094FED32002F091FE0020E1
:1032200002F08EFEDD2002F08BFE002002F088FE10
:10323000F32002F085FE002002F082FEE52002F07D
:1032400085FE002002F07CFE002002F079FE0020C6
:1032500002F076FE002002F073FE022002F070FE03
:10326000002002F06DFE292002F06AFE002002F02C
:1032700067FE3C2002F064FE002002F061FE4B205D
:1032800002F05EFE002002F05BFE5D2002F058FEC0
:10329000002002F055FE742002F052FE002002F0E1
:1032A0004FFE842002F04CFE002002F049FE9320E5
:1032B00002F046FE002002F043FEA22002F040FE93
:1032C000002002F03DFEB32002F03AFE002002F0A2
:1032D00037FEBE2002F034FE002002F031FEC42092
:1032E00002F02EFE002002F02BFECD2002F028FE80
:1032F000002002F025FED32002F022FE002002F082
:103300001FFEDC2002F01CFE002002F019FEF3205C
:1033100002F016FE002002F013FEE62002F016FE78
:10332000112002F00DFE002002F00AFE342002F00F
:1033300007FE002002F004FE562002F001FE0020ED
:1033400002F0FEFD762002F0FBFD002002F0F8FD09
:10335000772002F0F5FD002002F0F2FD662002F079
:10336000EFFD002002F0ECFD882002F0E9FD0020D6
:1033700002F0E6FD992002F0E3FD002002F0E0FDFE
:10338000BB2002F0DDFD002002F0DAFD992002F002
:10339000D7FD002002F0D4FD662002F0D1FD002010
:1033A00002F0CEFD552002F0CBFD002002F0C8FD5A
:1033B000552002F0C5FD002002F0C2FD452002F0BC
:1033C000BFFD002002F0BCFD432002F0B9FD00204B
:1033D00002F0B6FD442002F0B3FD002002F0B0FD83
:1033E000E72002F0B3FD322002F0AAFD002002F037
:1033F000A7FD552002F0A4FD002002F0A1FD7620DB
:1034000002F09EFD002002F09BFD662002F098FD78
:10341000002002F095FD672002F092FD002002F0EE
:103420008FFD672002F08CFD002002F089FD8720CF
:1034300002F086FD002002F083FD992002F080FD5D
:10344000002002F07DFDBB2002F07AFD002002F09A
:1034500077FD992002F074FD002002F071FD7720C5
:1034600002F06EFD002002F06BFD442002F068FDCA
:10347000002002F065FD562002F062FD002002F0FF
:103480005FFD232002F05CFD002002F059FD332097
:1034900002F056FD002002F053FD452002F050FDE1
:1034A000002002F04DFDE82002F050FD002002F067
:1034B00047FD002002F044FD992002F041FD00206C
:1034C00002F03EFD872002F03BFD002002F038FDB7
:1034D000882002F035FD002002F032FD772002F056
:1034E0002FFD002002F02CFD662002F029FD0020B7
:1034F00002F026FD882002F023FD002002F020FDCE
:10350000AA2002F01DFD002002F01AFDBB2002F0EF
:1035100017FD002002F014FD992002F011FD00209B
:1035200002F00EFD662002F00BFD002002F008FD07
:10353000552002F005FD002002F002FD552002F0AA
:10354000FFFC002002F0FCFC442002F0F9FC00200B
:1035500002F0F6FC442002F0F3FC002002F0F0FC44
:10356000552002F0EDFC002002F0EAFCE92002F018
:10357000EDFCAA2002F0E4FC002002F0E1FC0020B7
:1035800002F0DEFC002002F0DBFC002002F0DEFC9A
:10359000AA2002F0D5FCCF2002F0D8FC002002F0D7
:1035A000CFFC002002F0CCFC002002F0C9FC00207F
:1035B00002F0C6FC002002F0C3FC002002F0C0FCB8
:1035C000002002F0BDFC002002F0BAFC002002F056
:1035D000B7FC002002F0B4FC002002F0B1FC002097
:1035E00002F0AEFC002002F0ABFC002002F0A8FCD0
:1035F000002002F0A5FC002002F0A2FC002002F056
:103600009FFCF02002F0A2FC002002F099FC502068
:1036100002F096FC002002F093FC002002F090FCE7
:10362000002002F08DFCF32002F090FC002002F05C
:1036300087FCF92002F08AFC062002F081FC1020B1
:1036400002F07EFC292002F07BFC002002F078FCD6
:103650003A2002F07BFC552002F072FC112002F0AF
:1036600075FC642003F0AEF9292002F06FFC3520D0
:1036700002F06CFC002002F063FC512002F066FCBA
:10368000FF2002F05DFC532002F060FC2C2002F0D1
:1036900057FC552002F05AFC822002F051FC2C20ED
:1036A00002F054FC02F0E9B8FE48808845F210515F
:1036B00088427DD155214FF4704002F057FCAA2179
:1036C0004FF2010002F052FC52214FF2020002F0D0
:1036D0004DFC08214FF2030002F048FC01214FF29B
:1036E000040002F043FC0D214FF4304002F03EFC98
:1036F0000D214BF2010002F039FC0D214BF20200CA
:1037000002F034FC34214FF4364002F02FFC342117
:103710004BF2016002F02AFC34214BF2026002F00D
:1037200025FC0D214FF4314002F020FC0D214BF21D
:10373000011002F01BFC0D214BF2021002F016FCEE
:1037400034214FF4374002F011FC34214BF2017068
:1037500002F00CFC34214BF2027002F007FC002155
:103760004FF4324002F002FC00214BF2012002F043
:10377000FDFB00214BF2022002F0F8FB24214FF464
:10378000384002F0F3FB24214BF6010002F0EEFB7F
:1037900024214BF6020002F0E9FB01214FF43F40E7
:1037A00002F0E4FB0F214FF4334002F0DFFB00E0B6
:1037B000FDE30F214BF2013002F0D8FB0F214BF259
:1037C000023002F0D3FB34214FF4394002F0CEFB3B
:1037D00034214BF6011002F0C9FB34214BF60210E4
:1037E00002F0C4FB08214FF4354002F0BFFB082172
:1037F0004BF2015002F0BAFB08214BF2025002F0EA
:10380000B5FB03214FF4424002F0B0FB24214FF4FA
:103810003A4002F0ABFB24214BF6012002F0A6FB5C
:1038200024214BF6022002F0A1FB00214FF43C4082
:1038300002F09CFB78214BF6014002F097FB00213F
:103840004BF6024002F092FB00214FF43D4002F0A3
:103850008DFB78214BF6015002F088FB00214BF6DE
:10386000025002F083FB00214FF43E4002F07EFB49
:1038700064214BF6016002F079FB00214FF45140C6
:1038800002F074FB33214DF2011002F06FFB0021B6
:103890004DF2021002F06AFB34214DF2031002F0E7
:1038A00065FB00214DF2041002F060FB3A214DF25D
:1038B000051002F05BFB00214DF2061002F056FBF2
:1038C0004A214DF2071002F051FB00214DF2081081
:1038D00002F04CFB5C214DF2091002F047FB002185
:1038E0004DF20A1002F042FB81214DF20B1002F062
:1038F0003DFB00214DF20C1002F038FBA6214DF2E9
:103900000D1002F033FB00214DF20E1002F02EFBE1
:10391000E5214DF20F1002F029FB01214DF21010AC
:1039200002F024FB13214DF2111002F01FFB0121C4
:103930004DF2121002F01AFB54214DF2131002F056
:1039400015FB01214DF2141002F010FB82214DF203
:10395000151002F00BFB01214DF2161002F006FBD0
:10396000CA214DF2171002F001FB02214DF218108E
:1039700002F0FCFA00214DF2191002F0F7FA0221D0
:103980004DF21A1002F0F2FA01214DF21B1002F072
:10399000EDFA02214DF21C1002F0E8FA34214DF24A
:1039A0001D1002F0E3FA02214DF21E1002F0DEFAC1
:1039B00067214DF21F1002F0D9FA02214DF22010BA
:1039C00002F0D4FA84214DF2211002F0CFFA022144
:1039D0004DF2221002F0CAFAA4214DF2231002F097
:1039E000C5FA02214DF2241002F0C0FAB7214DF2BF
:1039F000251002F0BBFA02214DF2261002F0B6FAB1
:103A0000CF214DF2271002F0B1FA02214DF2281019
:103A100002F0ACFADE214DF2291002F0A7FA0221E1
:103A20004DF22A1002F0A2FAF2214DF22B1002F010
:103A30009DFA02214DF22C1002F098FAFE214DF26F
:103A40002D1002F093FA03214DF22E1002F08EFA9F
:103A500010214DF22F1002F089FA03214DF230109F
:103A600002F084FA33214DF2311002F07FFA032183
:103A70004DF2321002F07AFA6D214DF2331002F05D
:103A800075FA00214FF4524002F070FA33214DF2E2
:103A9000012002F06BFA00214DF2022002F066FADA
:103AA000342101E0D00100204DF2032002F05EFA43
:103AB00000214DF2042002F059FA3A214DF205207E
:103AC00002F054FA00214DF2062002F04FFA4A218A
:103AD0004DF2072002F04AFA00214DF2082002F0D0
:103AE00045FA5C214DF2092002F040FA00214DF226
:103AF0000A2002F03BFA81214DF20B2002F036FA47
:103B000000214DF20C2002F031FAA6214DF20D20D9
:103B100002F02CFA00214DF20E2002F027FAE521E6
:103B20004DF20F2002F022FA01214DF2102002F096
:103B30001DFA13214DF2112002F018FA01214DF265
:103B4000122002F013FA54214DF2132002F00EFA63
:103B500001214DF2142002F009FA82214DF21520C4
:103B600002F004FA01214DF2162002F0FFF9CA21F9
:103B70004DF2172002F0FAF902214DF2182002F05E
:103B8000F5F900214DF2192002F0F0F902214DF271
:103B90001A2002F0EBF901214DF21B2002F0E6F9A8
:103BA00002214DF21C2002F0E1F934214DF21D20DA
:103BB00002F0DCF902214DF21E2002F0D7F9672154
:103BC0004DF21F2002F0D2F902214DF2202002F026
:103BD000CDF984214DF2212002F0C8F902214DF2E5
:103BE000222002F0C3F9A4214DF2232002F0BEF9F5
:103BF00002214DF2242002F0B9F9B7214DF225201F
:103C000002F0B4F902214DF2262002F0AFF9CF21E3
:103C10004DF2272002F0AAF902214DF2282002F0ED
:103C2000A5F9DE214DF2292002F0A0F902214DF282
:103C30002A2002F09BF9F2214DF22B2002F096F996
:103C400002214DF22C2002F091F9FE214DF22D209F
:103C500002F08CF903214DF22E2002F087F9102199
:103C60004DF22F2002F082F903214DF2302002F0B4
:103C70007DF933214DF2312002F078F903214DF224
:103C8000322002F073F96D214DF2332002F06EF90B
:103C900000214FF4534002F069F933214DF2013015
:103CA00002F064F900214DF2023002F05FF9342194
:103CB0004DF2033002F05AF900214DF2043002F0C7
:103CC00055F93A214DF2053002F050F900214DF23C
:103CD000063002F04BF94A214DF2073002F046F966
:103CE00000214DF2083002F041F95C214DF209301B
:103CF00002F03CF900214DF20A3002F037F981213F
:103D00004DF20B3002F032F900214DF20C3002F08E
:103D10002DF9A6214DF20D3002F028F900214DF2C7
:103D20000E3002F023F9E5214DF20F3002F01EF9BA
:103D300001214DF2103002F019F913214DF211302A
:103D400002F014F901214DF2123002F00FF9542162
:103D50004DF2133002F00AF901214DF2143002F055
:103D600005F982214DF2153002F000F901214DF2E2
:103D7000163002F0FBF8CA214DF2173002F0F6F8C7
:103D800002214DF2183002F0F1F800214DF2193005
:103D900002F0ECF802214DF21A3002F0E7F80121AE
:103DA0004DF21B3002F0E2F802214DF21C3002F01D
:103DB000DDF834214DF21D3002F0D8F802214DF229
:103DC0001E3002F0D3F867214DF21F3002F0CEF81A
:103DD00002214DF2203002F0C9F884214DF2213049
:103DE00002F0C4F802214DF2223002F0BFF8A42103
:103DF0004DF2233002F0BAF802214DF2243002F0E5
:103E0000B5F8B7214DF2253002F0B0F802214DF29D
:103E1000263002F0ABF8CF214DF2273002F0A6F8A1
:103E200002214DF2283002F0A1F8DE214DF22930B6
:103E300002F09CF802214DF22A3002F097F8F221AC
:103E40004DF22B3002F092F802214DF22C3002F0AC
:103E50008DF8FE214DF22D3002F088F803214DF24D
:103E60002E3002F083F810214DF22F3002F07EF850
:103E700003214DF2303002F079F833214DF2313028
:103E800002F074F803214DF2323002F06FF86D2128
:103E90004DF2333002F06AF800214FF4544002F042
:103EA00065F833214DF2014002F060F800214DF237
:103EB000024002F05BF834214DF2034002F056F864
:103EC00000214DF2044002F051F83A214DF2054034
:103ED00002F04CF800214DF2064002F047F84A216A
:103EE0004DF2074002F042F800214DF2084002F086
:103EF0003DF85C214DF2094002F038F800214DF206
:103F00000A4002F033F881214DF20B4002F02EF806
:103F100000214DF20C4002F029F8A6214DF20D408F
:103F200002F024F800214DF20E4002F01FF8E521C6
:103F30004DF20F4002F01AF801214DF2104002F04C
:103F400015F813214DF2114002F010F801214DF245
:103F5000124002F00BF854214DF2134002F006F823
:103F600001214DF2144002F001F882214DF215407A
:103F700001F0FCFF01214DF2164001F0F7FFCA21CC
:103F80004DF2174001F0F2FF02214DF2184001F00E
:103F9000EDFF00214DF2194001F0E8FF02214DF242
:103FA0001A4001F0E3FF01214DF21B4000E006E35F
:103FB00001F0DCFF02214DF21C4001F0D7FF34215B
:103FC0004DF21D4001F0D2FF02214DF21E4001F0E2
:103FD000CDFF67214DF21F4001F0C8FF02214DF2D5
:103FE000204001F0C3FF84214DF2214001F0BEFFCB
:103FF00002214DF2224001F0B9FFA4214DF22340ED
:1040000001F0B4FF02214DF2244001F0AFFFB721CF
:104010004DF2254001F0AAFF02214DF2264001F0A9
:10402000A5FFCF214DF2274001F0A0FF02214DF264
:10403000284001F09BFFDE214DF2294001F096FF60
:1040400002214DF22A4001F091FFF2214DF22B4066
:1040500001F08CFF02214DF22C4001F087FFFE2180
:104060004DF22D4001F082FF03214DF22E4001F070
:104070007DFF10214DF22F4001F078FF03214DF21A
:10408000304001F073FF33214DF2314001F06EFFFB
:1040900003214DF2324001F069FF6D214DF23340B2
:1040A00001F064FF00214FF4554001F05FFF332120
:1040B0004DF2015001F05AFF00214DF2025001F083
:1040C00055FF34214DF2035001F050FF00214DF215
:1040D000045001F04BFF3A214DF2055001F046FF2C
:1040E00000214DF2065001F041FF4A214DF20750E8
:1040F00001F03CFF00214DF2085001F037FF5C2138
:104100004DF2095001F032FF00214DF20A5001F04A
:104110002DFF81214DF20B5001F028FF00214DF2BF
:104120000C5001F023FFA6214DF20D5001F01EFFAF
:1041300000214DF20E5001F019FFE5214DF20F5014
:1041400001F014FF01214DF2105001F00FFF132177
:104150004DF2115001F00AFF01214DF2125001F011
:1041600005FF54214DF2135001F000FF01214DF2E3
:10417000145001F0FBFE82214DF2155001F0F6FEC5
:1041800001214DF2165001F0F1FECA214DF21750F7
:1041900001F0ECFE02214DF2185001F0E7FE002183
:1041A0004DF2195001F0E2FE02214DF21A5001F0D9
:1041B000DDFE01214DF21B5001F0D8FE02214DF22F
:1041C0001C5001F0D3FE34214DF21D5001F0CEFE03
:1041D00002214DF21E5001F0C9FE67214DF21F5021
:1041E00001F0C4FE02214DF2205001F0BFFE8421F7
:1041F0004DF2215001F0BAFE02214DF2225001F0A1
:10420000B5FEA4214DF2235001F0B0FE02214DF283
:10421000245001F0ABFEB7214DF2255001F0A6FE6F
:1042200002214DF2265001F0A1FECF214DF2275080
:1042300001F09CFE02214DF2285001F097FEDE2194
:104240004DF2295001F092FE02214DF22A5001F068
:104250008DFEF2214DF22B5001F088FE02214DF22D
:104260002C5001F083FEFE214DF22D5001F07EFE18
:1042700003214DF22E5001F079FE10214DF22F5006
:1042800001F074FE03214DF2305001F06FFE332136
:104290004DF2315001F06AFE03214DF2325001F02F
:1042A00065FE6D214DF2335001F060FE00214FF4A8
:1042B000564001F05BFE33214DF2016001F056FEE5
:1042C00000214DF2026001F051FE34214DF20360F5
:1042D00001F04CFE00214DF2046001F047FE3A214E
:1042E0004DF2056001F042FE00214DF2066001F042
:1042F0003DFE4A214DF2076001F038FE00214DF2EB
:10430000086001F033FE5C214DF2096001F02EFEE1
:1043100000214DF20A6001F029FE81214DF20B606F
:1043200001F024FE00214DF20C6001F01FFEA621D9
:104330004DF20D6001F01AFE00214DF20E6001F009
:1043400015FEE5214DF20F6001F010FE01214DF246
:10435000106001F00BFE13214DF2116001F006FE1A
:1043600001214DF2126001F001FE54214DF2136063
:1043700001F0FCFD01214DF2146001F0F7FD8221F6
:104380004DF2156001F0F2FD01214DF2166001F0D1
:10439000EDFDCA214DF2176001F0E8FD02214DF25A
:1043A000186001F0E3FD00214DF2196001F0DEFD1F
:1043B00002214DF21A6001F0D9FD01214DF21B607E
:1043C00001F0D4FD02214DF21C6001F0CFFD34213B
:1043D0004DF21D6001F0CAFD02214DF21E6001F098
:1043E000C5FD67214DF21F6001F0C0FD02214DF2B5
:1043F000206001F0BBFD84214DF2216001F0B6FD8B
:1044000002214DF2226001F0B1FDA4214DF22360A2
:1044100001F0ACFD02214DF2246001F0A7FDB721AF
:104420004DF2256001F0A2FD02214DF2266001F05F
:104430009DFDCF214DF2276001F098FD02214DF244
:10444000286001F093FDDE214DF2296001F08EFD20
:1044500002214DF22A6001F089FDF2214DF22B601C
:1044600001F084FD02214DF22C6001F07FFDFE2160
:104470004DF22D6001F07AFD03214DF22E6001F026
:1044800075FD10214DF22F6001F070FD03214DF2FA
:10449000306001F06BFD33214DF2316001F066FDBB
:1044A00003214DF2326001F061FD6D214DF2336068
:1044B00001F05CFD55214FF4704001F057FDAA2139
:1044C0004FF2010001F052FD52214FF2020001F0C3
:1044D0004DFD08214FF2030001F048FD00214FF28D
:1044E000040001F043FDCC214FF4314001F03EFDCA
:1044F00000214BF2011001F039FD05214FF4364047
:1045000001F034FD70214FF4374001F02FFD702190
:104510004BF2017001F02AFD01214FF4384001F007
:1045200025FD03214BF6010001F020FD03214BF690
:10453000020001F01BFD03214BF6030001F016FD04
:1045400002214FF43C4001F011FD00214BF60140E7
:1045500001F00CFD00214BF6024001F007FDD021D7
:104560004FF4494001F002FD02214CF6011001F028
:10457000FDFC50214CF6021001F0F8FC50214CF6E5
:10458000031001F0F3FC50214CF6041001F0EEFC96
:1045900000214FF4545001F0E9FC55214FF46850CC
:1045A00001F0E4FC4FF4885001F0D0FC782002F0D8
:1045B0002FFA4FF4245001F0C9FC01F05EB9FE4817
:1045C000808849F2253188427ED147F6F001E52006
:1045D00001F0CCFC4FF48071012001F0C7FC4FF4D6
:1045E000E061022001F0C2FC41F23001032001F041
:1045F000BDFC0021042001F0B9FC40F2022108209A
:1046000001F0B4FC0021092001F0B0FC00210A20D7
:1046100001F0ACFC00210C2001F0A8FC00210D20D1
:1046200001F0A4FC00210F2001F0A0FC00211020CB
:1046300001F09CFC0721112001F098FC00211220C0
:1046400001F094FC0021132001F090FC00210720D0
:1046500001F08CFC41F29061102001F087FC40F2E7
:104660002721112001F082FC9D21122001F07EFC07
:104670004FF4C851132001F079FC2521292001F0C5
:1046800075FC0D212B2001F071FC0721302001F079
:104690006DFC40F20331312001F068FC032132202F
:1046A00001F064FC40F20621352001F05FFC082196
:1046B000362001F05BFC40F20641372001F056FC49
:1046C0004FF44171382000E057E001F04FFC072122
:1046D000392001F04BFC40F202613C2001F046FC25
:1046E00008213D2001F042FC0021502001F03EFC59
:1046F000EF21512001F03AFC0021522001F036FC5C
:1047000040F23F11532001F031FC4FF4274160206B
:1047100001F02CFC0121612001F028FC00216A201D
:1047200001F024FC0021802001F020FC00218120E8
:1047300001F01CFC0021822001F018FC00218320E4
:1047400001F014FC0021842001F010FC00218520E0
:1047500001F00CFC1021902001F008FC4FF4C06126
:10476000922001F003FC40F23311072001F0FEFB20
:104770002221002001F0FAFB1FE78F48808849F2D0
:10478000283188427ED141F28F01EC2001F0EEFB0E
:1047900041F23421EF2001F0E9FB4FF48071012058
:1047A00001F0E4FB4FF4E061022001F0DFFB41F295
:1047B0003001032001F0DAFB0021042001F0D6FBD8
:1047C00040F20221082001F0D1FB0021092001F074
:1047D000CDFB00210A2001F0C9FB01210C2001F0D2
:1047E000C5FB00210D2001F0C1FB00210F2001F0CD
:1047F000BDFB0021102001F0B9FB0721112001F0C1
:10480000B5FB0021122001F0B1FB0021132001F0C3
:10481000ADFB0121072001F0A9FB322002F0D2F804
:1048200041F29041102001F0A1FB40F2272111201C
:1048300001F09CFB322002F0C5F88A21122001F021
:1048400095FB322002F0BEF84FF4D051132001F056
:104850008DFB0621292001F089FB0D212B2001F081
:1048600085FB322002F0AEF80021202001F07EFB13
:104870000021212001F07AFB322002F0A3F8002170
:10488000302000E074E001F071FB40F2046131205F
:1048900001F06CFB40F20531322001F067FB002192
:1048A000352001F063FB40F60941362001F05EFB44
:1048B0004FF40171372001F059FB40F201313820EB
:1048C00001F054FB40F20771392001F04FFB002149
:1048D0003C2001F04BFB40F60A213D2001F046FB55
:1048E000322002F06FF80021502001F03FFBEF2151
:1048F000512001F03BFB0021522001F037FB40F238
:104900003F11532001F032FB4FF42741602001F0AA
:104910002DFB0121612001F029FB00216A2001F01B
:1049200025FB0021802001F021FB0021812001F0E6
:104930001DFB0021822001F019FB0021832001F0E2
:1049400015FB0021842001F011FB0021852001F0DE
:104950000DFB1021902001F009FB4FF4C061922063
:1049600001F004FB40F23311072001F0FFFA24E6C6
:104970001148808849F2203188427DD100210846C3
:1049800001F0F4FA4FF48071012001F0EFFA4FF4D6
:10499000E061022001F0EAFA41F23001032001F067
:1049A000E5FA0021042001F0E1FA40F2022108209A
:1049B00001F0DCFA002101E0D0010020092001F023
:1049C000D5FA00210A2001F0D1FA01210C2001F0D2
:1049D000CDFA00210D2001F0C9FA00210F2001F0CD
:1049E000C5FA322001F0EEFF40F20111072001F07C
:1049F000BDFA322001F0E6FF4FF48651102001F09D
:104A0000B5FA0721112001F0B1FA4FF48871122094
:104A100001F0ACFA4FF43061132001F0A7FA002145
:104A2000292001F0A3FA44F210012B2001F09EFA94
:104A30000021502001F09AFAEF21512001F096FA5E
:104A40000021522001F092FA40F23F11532001F070
:104A50008DFA4FF41C51602001F088FA0121612089
:104A600001F084FA00216A2001F080FA0021802000
:104A700001F07CFA002100E031E0812001F076FABB
:104A80000021822001F072FA0021832001F06EFAE9
:104A90000021842001F06AFA0021852001F066FAE5
:104AA0001021902001F062FA0021922001F05EFABC
:104AB0000121932001F05AFA4FF48871952001F0FA
:104AC00055FA0021972001F051FA0021982001F0B9
:104AD0004DFA40F27311072001F048FA6DE5FE48E7
:104AE000808849F2313188427DD141F21401E720BA
:104AF00001F03CFA4FF48071012001F037FA4FF4D5
:104B00000071022001F032FA41F23801032001F075
:104B10002DFA40F20221082001F028FA0021092094
:104B200001F024FA00210A2001F020FA00210C20D3
:104B300001F01CFA00210D2001F018FA00210F20CD
:104B400001F014FA0021102001F010FA07211120C1
:104B500001F00CFA0021122001F008FA00211320C4
:104B600001F004FAC82001F02DFF41F290611020FD
:104B700001F0FCF940F22721112001F0F7F9322071
:104B800001F020FF0C21122001F0F0F9322001F099
:104B900019FF4FF40061132001F0E8F911212920D9
:104BA00001F0E4F90B212B2001F0E0F9322001F0B3
:104BB00009FF0021202001F0D9F940F23F11212006
:104BC00001F0D4F90021302001F0D0F94FF48371C5
:104BD000312001F0CBF90021322001F0C7F94FF468
:104BE0000171352000E064E001F0C0F941F20A6192
:104BF000362001F0BBF940F20771372001F0B6F919
:104C00004FF48371382001F0B1F940F20771392077
:104C100001F0ACF940F202413C2001F0A7F940F666
:104C20000F413D2001F0A2F90021502001F09EF932
:104C3000EF21512001F09AF90021522001F096F95C
:104C400040F23F11532001F091F94FF41C516020C4
:104C500001F08CF90121612001F088F900216A201E
:104C600001F084F90021802001F080F900218120E9
:104C700001F07CF90021822001F078F900218320E5
:104C800001F074F90021842001F070F900218520E1
:104C900001F06CF91021902001F068F94FF4C06127
:104CA000922001F063F940F23311072001F05EF920
:104CB00083E48948808845F2084188427ED14FF4D8
:104CC0008071012001F052F94FF4E061022001F0FF
:104CD0004DF941F23001032001F048F90021042090
:104CE00001F044F940F20721082001F03FF90021CA
:104CF000092001F03BF900210A2001F037F90021D9
:104D00000C2001F033F900210D2001F02FF90021D2
:104D10000F2001F02BF9142001F054FE41F2B06194
:104D2000102001F023F90121112001F01FF90121C8
:104D3000172001F01BF94FF49C71122001F016F9B5
:104D40004FF40061132001F011F90921292001F02D
:104D50000DF909212A2001F009F90021A42001F010
:104D600005F90021502001F001F9EF21512001F057
:104D7000FDF80021522001F0F9F840F23F115320D4
:104D800001F0F4F84FF41C51602001F0EFF801211C
:104D9000612001F0EBF800216A2001F0E7F8002122
:104DA000802001F0E3F80021812001F0DFF80021EC
:104DB000822001F0DBF80021832000E023E001F0F5
:104DC000D5F80021842001F0D1F80021852001F0E0
:104DD000CDF81321902001F0C9F80021922001F0B4
:104DE000C5F80321932001F0C1F84FF48871952094
:104DF00001F0BCF840F27311072001F0B7F832203F
:104E000001F0E0FDB8E43448808841F20551884261
:104E10007ED10021072001F0A9F8322001F0D2FD57
:104E20004FF48E71122001F0A1F80121A42001F0AD
:104E30009DF80F21082001F099F808210A2001F0BF
:104E400095F808210D2001F091F840F2077130200B
:104E500001F08CF80721312001F088F840F203615D
:104E6000322001F083F84FF4E061332001F07EF846
:104E700040F20221342001F079F80221352001F0BE
:104E800075F841F60F71362001F070F840F20771A5
:104E9000372001F06BF80021382001F067F800217D
:104EA000392001F063F840F207713A2001F05EF812
:104EB00000213B2001F05AF807213C2001F056F870
:104EC00000213D2001F052F8322001F07BFD01214C
:104ED000072001F04BF801E0D0010020012117204C
:104EE00001F044F8322001F06DFD4FF4BD51102067
:104EF00001F03CF840F21721112001F037F84FF48F
:104F00008F71122001F032F84FF47061132000E02D
:104F100097E001F02BF800212A2001F027F80A2160
:104F2000292001F023F84FF49F71122001F01EF8A0
:104F30000021502001F01AF8EF21512001F016F85D
:104F40000021522001F012F840F23F11532001F0ED
:104F50000DF84FF41C51602001F008F80121612088
:104F600001F004F800216A2001F000F800218020FF
:104F700000F0FCFF0021812000F0F8FF00218220DA
:104F800000F0F4FF0021832000F0F0FF00218420D6
:104F900000F0ECFF0021852000F0E8FF13219020B5
:104FA00000F0E4FF4FF44071922000F0DFFF052194
:104FB000932000F0DBFF0021952000F0D7FF0021B7
:104FC000972000F0D3FF0021982000F0CFFF4FF48E
:104FD0008071012000F0CAFF4FF4E061022000F070
:104FE000C5FF41F23801032000F0C0FF002104207A
:104FF00000F0BCFF00210C2000F0B8FF00210F20C2
:1050000000F0B4FF0021202000F0B0FF002121209B
:1050100000F0ACFF2121072000F0A8FF142001F0D0
:10502000D1FC6121072000F0A1FF142001F0CAFC8F
:1050300040F27311072000F099FF142001F0C2FC28
:1050400095E4FE4880884BF2055188427ED10021CC
:10505000084600F08BFF0021084600F087FF002182
:10506000084600F083FF0021084600F07FFF012181
:10507000A42000F07BFF142001F0A4FC4FF41C518D
:10508000602000F073FF40F20221082000F06EFF64
:105090004FF40571302000F069FF43F215713120A3
:1050A00000F064FF40F20461322000F05FFF40F640
:1050B0001661332000F05AFF42F21121342000F033
:1050C00055FF4FF4A851352000F050FF48F207512A
:1050D000362000F04BFF41F20741372000F046FF39
:1050E00041F20341382000F041FF2021392000F037
:1050F0003DFF1A21902000F039FF0021102000F020
:1051000035FF0721112000F031FF0021122000F0AF
:105110002DFF0021132000F029FF142001F052FC84
:105120004FF4E661102000F021FF40F2371111200A
:1051300000F01CFF142001F045FC4FF4DC7112203C
:1051400000F014FF142001F03DFC00E083E04FF478
:105150007061132000F00AFF80212A2000F006FF72
:105160004821292000F002FF142001F02BFC4FF40D
:105170008071012000F0FAFE4FF4E061022000F09F
:10518000F5FE41F23801032000F0F0FE40F202216A
:10519000082000F0EBFE00210A2000F0E7FE0021CD
:1051A0000C2000F0E3FE00210D2000F0DFFE302196
:1051B0000E2000F0DBFE0021502000F0D7FEEF2192
:1051C000512000F0D3FE0021522000F0CFFE40F22B
:1051D0003F11532000F0CAFE4FF41C51602000F034
:1051E000C5FE0121612000F0C1FE00216A2000F00F
:1051F000BDFE1121902000F0B9FE4FF4C061922055
:1052000000F0B4FE40F20241932000F0AFFE022114
:10521000942000F0ABFE142001F0D4FB0121072004
:1052200000F0A4FE142001F0CDFB6121072000F066
:105230009DFE40F27311072000F098FE002120200F
:1052400000F094FE0021212000F090FE2221002099
:1052500000F08CFE11E3794880884CF205518842B9
:105260007ED10021084600F081FE0021084600F0B2
:105270007DFE142001F0A6FB0021084600F076FE1A
:105280000021084600F072FE0021084600F06EFE84
:105290000021084600F06AFE0121A42000F066FE0D
:1052A000142001F08FFB4FF41C51602000F05EFED3
:1052B00040F60601082000F059FE40F2037130204C
:1052C00000F054FE0121312000F050FE0421322074
:1052D00000F04CFE4FF48171332000F047FE4FF494
:1052E0004071342000F042FE40F20311352000F0FE
:1052F0003DFE1F21362000F039FE40F203713720B9
:1053000000F034FE0121382000F030FE0421392065
:1053100000F02CFE1521902000F028FE4FF4826151
:10532000102000F023FE40F24721112000F01EFE65
:105330004FF4DE71122000F019FE4FF4606113206B
:1053400000F014FE782001F03DFB4FF48071012045
:1053500000F00CFE4FF40071022000F007FE00E0A8
:1053600050E041F23001032000F000FE08210A2045
:1053700000F0FCFD00210C2000F0F8FD20210E20A3
:1053800000F0F4FD00210F2000F0F0FD00212020AE
:1053900000F0ECFD0021212000F0E8FD3D212A2055
:1053A00000F0E4FD142001F00DFB2D21292000F078
:1053B000DDFD0021502000F0D9FD4DF2EF0151201C
:1053C00000F0D4FD0021522000F0D0FD40F23F114A
:1053D000532000F0CBFD0021612000F0C7FD00212B
:1053E0006A2000F0C3FD4FF44071922000F0BEFD32
:1053F0000521932000F0BAFD4FF48071072000F0E2
:10540000B5FD3AE20D48808844F2315188427CD1A2
:105410000121002000F0AAFD0A2001F0D3FA41F298
:105420002861102000F0A2FD0E21122000F09EFD48
:1054300040F63921132000F099FD01E0D001002051
:105440000A2001F0BFFA4021112000F08FFD502109
:10545000152000F08BFD0A2001F0B4FA1E21122065
:1054600000F084FD0A2001F0ADFA4FF4B151102094
:1054700000F07CFD42F63921132000F077FD0A2070
:1054800001F0A0FA4FF48071012000F06FFD4FF49D
:105490004071022000F06AFD41F23801032000F063
:1054A00065FD40F20221082000F060FD08210A207D
:1054B00000F05CFD0021302000F058FD40F2024178
:1054C000312000F053FD4FF48371322000F04EFD87
:1054D00040F20351332000F049FD4FF48271342033
:1054E00000F044FD40F20131352000F03FFD40F274
:1054F0000771362000F03AFD40F20531372000F008
:1055000035FD4FF40271382000E040E000F02EFD40
:1055100040F60B71392000F029FD0221412000F0F6
:1055200025FD4FF41C51602000F020FD0121612079
:1055300000F01CFD4FF40471902000F017FD4FF4B3
:105540008571922000F012FD0421932000F00EFDE1
:105550004FF48071A02000F009FD0121072000F028
:1055600005FD2121072000F001FD2321072000F087
:10557000FDFC3321072000F0F9FC40F23311072035
:1055800000F0F4FC0021A02000F0F0FC75E1C1481F
:10559000808844F2355188427ED13021152000F0B8
:1055A000E5FC10219A2000F0E1FC2021112000F000
:1055B000DDFC43F22841102000F0D8FC022112202B
:1055C00000F0D4FC41F23801132000F0CFFC282079
:1055D00001F0F8F91221084600F0C8FC282001F07B
:1055E000F1F943F22041102000F0C0FC43F23801F1
:1055F000132000F0BBFC462001F0E4F9002130202C
:1056000000F0B4FC40F20241312000F0AFFC40F267
:105610000731322000F0AAFC4FF44171332000F032
:10562000A5FC0421342000F0A1FC40F2014135200A
:1056300000F09CFC40F20771362000F097FC40F22D
:105640000531372000F092FC4FF4C261382000F0A1
:105650008DFC4FF4C261392000F088FC4FF480715A
:10566000012000F083FC4FF44071022000F07EFC2A
:1056700041F23001032000F079FC40F608010820D7
:1056800000F074FC08210A2000F070FC4FF41C515B
:10569000602000F06BFC00E031E00121612000F0AF
:1056A00065FC4FF49F71902000F060FC4FF4807116
:1056B000922000F05BFC4FF48071932000F056FCC8
:1056C0004FF44051A02000F051FC1021A32000F025
:1056D0004DFC0121072000F049FC2121072000F0AA
:1056E00045FC2321072000F041FC3321072000F076
:1056F0003DFC40F23311072000F038FCBDE0654866
:10570000808841F663118842F8D1E22000F01EFC47
:105710001D2000F015FC022000F012FC042000F017
:105720000FFC642001F074F9E02000F00FFC012070
:1057300000F006FC0A2001F045F9E02000F006FC2C
:10574000032000F0FDFB0C2001F03CF9012000F0EB
:10575000FDFB0A2001F036F9E62000F0F7FB2F20D0
:1057600000F0EEFBFF2000F0EBFBFF2000F0E8FB79
:10577000B02000F0EBFB202000F0E2FB002000F066
:10578000DFFB032000F0DCFB40F21F3000F0D8FB11
:10579000012000F0D5FB40F2DF1000F0D1FB00202B
:1057A00000F0CEFBB42000F0D1FB042000F0C8FBD9
:1057B00040F21F4000F0C4FB002000F0C1FB2E208F
:1057C00000F0BEFB002000F0BBFB002000F0B8FBA7
:1057D000002000F0B5FB002000F0B2FBB62000F086
:1057E000B5FB022000F0ACFB4FF4037000F0A8FB07
:1057F000002000F0A5FB172000F0A2FB152000F010
:105800009FFB002000F09CFB002000F099FBF020A3
:1058100000F09CFB032000F093FB292000F096FB96
:10582000D02000F093FB002000F08AFBBE2000F0A7
:105830008DFB052000F084FBFE2000F081FB0120A1
:1058400000F07EFB002000F07BFB002000F078FBE6
:10585000002000F075FBB82000F078FB032000F07A
:105860006FFB012000F06CFBBA2000F06FFB012001
:1058700000F066FB642000F027F80020FCF7B6FA81
:105880000120054908604FF6FF70FCF779FA1FB058
:1058900000BD0000D00100208081214208B50348EE
:1058A00000880090BDF8000008BD00000008006CF2
:1058B00010B50446204600F049FB052001F0A8F889
:1058C000FFF7ECFF10BD00002DE9F0470446BE20B5
:1058D00000F03CFB052000F033FB204601F06FFB9D
:1058E00007464FF066320C4B01F07CFB054601F099
:1058F00039FB1FFA80F9484600F022FB012000F036
:105900001FFBFF2000F01CFB002000F019FB002013
:1059100000F016FBBDE8F0876666044070B50446EB
:1059200000230026B748807901280BD1B54880882C
:1059300046F60401884205D0B248808841F66311DA
:10594000884208D1AF488079F0B9AE48808841F6E6
:105950006311884218D1082C15D2DFE804F0040640
:10596000080A0C0E101206240DE007240BE0042494
:1059700009E0052407E0012405E0002403E00324F6
:1059800001E0022400BF00BF9E48808849F24131F7
:10599000884217D09B48808846F60401884211D07F
:1059A0009848808845F2103188420BD0954880880D
:1059B00045F21051884205D09248808841F6631123
:1059C00088427DD1082C1CD2DFE804F00406090CC3
:1059D0000F12151800BF14E043F0800311E043F0EC
:1059E00040030EE043F0C0030BE043F0200308E067
:1059F00043F0600305E043F0A00302E043F0E0035E
:105A000000BF00BF7F48808845F21051884202D114
:105A10004FF4585600E036267A48808845F2103117
:105A200088420DD07748808845F21051884207D0CF
:105A30007448808841F66311884201D043F008031E
:105A40007048808846F60401884201D143F0020381
:105A50001946304600F08AFA6A48808841F6631198
:105A600088421DD003F0200068B16648008865496F
:105A70004988884214DA634805884088614908806B
:105A8000084645800CE05F4800885E4949888842A6
:105A900006DD5C48058840885A49088008464580EC
:105AA0005848808845F21051884254D15549488958
:105AB00000F04CFA002000F043FA5249498900E016
:105AC00078E0491C88B200F041FA002000F038FA72
:105AD0004C494989891C88B200F038FA494909883B
