:020000040800F2
:10000000D0060020CD0100080D040008B703000849
:10001000090400087F020008970A00080000000099
:10002000000000000000000000000000990500082A
:100030008302000800000000810400088506000813
:10004000E7010008E7010008E7010008E7010008F0
:10005000E7010008E7010008E7010008E7010008E0
:10006000E7010008E7010008E7010008E7010008D0
:10007000E7010008E7010008E7010008E7010008C0
:10008000E7010008E7010008E7010008E7010008B0
:10009000E7010008E7010008E7010008E7010008A0
:1000A000E7010008E7010008E7010008E701000890
:1000B000E7010008E7010008E7010008E701000880
:1000C000E7010008E7010008E7010008E701000870
:1000D000E7010008F5060008E70100081508000818
:1000E000E7010008E7010008E7010008E701000850
:1000F000E7010008E7010008E7010008E701000840
:10010000E7010008E7010008E7010008E70100082F
:10011000E7010008E7010008E7010008E70100081F
:10012000E7010008E7010008E7010008E70100080F
:1001300000F002F800F03AF80AA090E8000C8244BF
:100140008344AAF10107DA4501D100F02FF8AFF29C
:10015000090EBAE80F0013F0010F18BFFB1A43F0A5
:10016000010318471C0A00003C0A0000103A24BF93
:1001700078C878C1FAD8520724BF30C830C144BF0C
:1001800004680C607047000000230024002500264E
:10019000103A28BF78C1FBD8520728BF30C148BFEA
:1001A0000B6070471FB51FBD10B510BD00F031F8D2
:1001B0001146FFF7F7FF00F071FC00F04FF803B4B1
:1001C000FFF7F2FF03BC00F053F800000948804736
:1001D00009480047FEE7FEE7FEE7FEE7FEE7FEE729
:1001E000FEE7FEE7FEE7FEE704480549054A064B41
:1001F000704700009506000831010008D00000207B
:10020000D0060020D0020020D002002070477047A6
:100210007047754600F028F8AE460500694653461B
:1002200020F00700854618B020B5FFF7DDFFBDE8D8
:1002300020404FF000064FF000074FF000084FF04D
:10024000000B21F00701AC46ACE8C009ACE8C009DE
:10025000ACE8C009ACE8C0098D4670470446AFF36E
:1002600000802046FFF7ABFF004870476C0000207D
:1002700001491820ABBEFEE726000200704700BF10
:10028000FEE770470349086000BF0249096800297A
:10029000FBD17047040000202DE9F0410246002503
:1002A0000026002000230024002791F803C00CF052
:1002B0000F0591F803C00CF0100CBCF1000F03D037
:1002C00091F802C04CEA050591F800C0BCF1000F9E
:1002D00031D0146800202BE04FF0010C0CFA00F331
:1002E000B1F800C00CEA03069E4220D183004FF013
:1002F0000F0C0CFA03F7BC4305FA03FC4CEA0404A8
:1003000091F803C0BCF1280F06D14FF0010C0CFA94
:1003100000FCC2F814C00AE091F803C0BCF1480F19
:1003200005D14FF0010C0CFA00FCC2F810C0401CC3
:100330000828D1D31460B1F800C0BCF1FF0F34DD40
:10034000546800202EE000F1080C4FF0010808FA74
:100350000CF3B1F800C00CEA03069E4221D18300E1
:100360004FF00F0C0CFA03F7BC4305FA03FC4CEA00
:10037000040491F803C0BCF1280F05D100F1080C6A
:1003800008FA0CF8C2F8148091F803C0BCF1480FC9
:1003900007D100F1080C4FF0010808FA0CF8C2F878
:1003A0001080401C0828CED35460BDE8F081416124
:1003B00070470161704700BFFEE7000008B50121EA
:1003C000482000F06FF82020ADF8000010208DF8D4
:1003D000030003208DF8020069460948FFF75CFF1F
:1003E00020210748FFF7E5FF2020ADF8000069460F
:1003F0000448FFF751FF20210248FFF7DAFF08BD4C
:10040000000C01400018014000BFFEE770470000EB
:1004100070B5002100230F22C47804B3154C246862
:1004200004F4E064C4F5E064210AC1F10403CA40A5
:10043000447804FA03F184781440214309010E4CF6
:100440000678A155047804F01F050124AC40057816
:100450006D11AD0005F1E025C5F8004109E0047813
:1004600004F01F050124AC40044D0678761145F8D0
:10047000264070BD0CED00E000E400E080E100E00B
:100480007047000029B1064AD2690243044BDA6181
:1004900004E0034AD2698243014BDA6170470000ED
:1004A0000010024029B1064A92690243044B9A6146
:1004B00004E0034A92698243014B9A61704700004D
:1004C0000010024030B500210022002400232D4DF1
:1004D0006D6805F00C0121B1042905D0082923D14C
:1004E00005E0294D056022E0274D05601FE0254D00
:1004F0006D6805F47012234D6D6805F48034022593
:1005000005EB92421CB9214D554305600BE01D4D92
:100510006D6805F400351DB11C4D5543056002E0C2
:10052000194D5543056002E0174D056000BF00BF3F
:10053000144D6D6805F0F0010909154D6B5C0568F7
:10054000DD4045600F4D6D6805F4E061090A104D0E
:100550006B5C4568DD4085600A4D6D6805F460514F
:10056000C90A0B4D6B5C4568DD40C560054D6D6883
:1005700005F44041890B074D6B5CC568B5FBF3F58D
:10058000056130BD0010024000127A0000093D00F4
:100590003000002040000020704710B500F002F845
:1005A00010BD00000CB50020019000903348006899
:1005B00040F480303149086000BF3048006800F4E2
:1005C000003000900198401C0190009818B90198E3
:1005D000B0F5A06FF1D12948006800F4003010B1E7
:1005E0000120009001E0002000900098012843D1F4
:1005F0002348006840F01000214908600846006860
:1006000020F0030008600846006840F0020008601F
:100610001A484068194948600846406848600846DA
:10062000406840F4806048600846406820F47C10D0
:1006300048600846406840F4E81048600846006892
:1006400040F08070086000BF0C48006800F0007047
:100650000028F9D00948406820F0030007494860A5
:100660000846406840F00200486000BF0348406808
:1006700000F00C000828F9D10CBD00000010024069
:100680000020024002480068401E0149086070478F
:100690000400002010B51348006840F00100114923
:1006A000086008464068104908400E4948600846FE
:1006B00000680E4908400B4908600846006820F4AD
:1006C000802008600846406820F4FE0048604FF42F
:1006D0001F008860FFF761FF4FF000600449086069
:1006E00010BD0000001002400000FFF8FFFFF6FE02
:1006F00008ED00E010B540F22551184800F006F969
:1007000008B340F22551154800F0D8F8134800F01E
:10071000B9F9C4B20D2C05D0232C03D010480078B1
:10072000142811D10D200F490D4A12788854002049
:100730000B49087001200C490870002240F2255135
:10074000064800F00DF907E0054801780078401CE4
:10075000034A10700348445410BD000000380140A3
:1007600000000020440000200100002000B587B0F8
:1007700001210820FFF796FE01218804FFF782FE81
:100780004FF48060ADF8080018208DF80B000320AE
:100790008DF80A0002A91D48FFF77EFD4FF40060A6
:1007A000ADF8080004208DF80B0002A91748FFF7E8
:1007B00073FD27208DF8040003208DF805008DF8C7
:1007C000060001208DF8070001A8FFF721FE4FF475
:1007D000E13003900020ADF81000ADF81200ADF844
:1007E0001400ADF818000C20ADF8160003A9084855
:1007F00000F0DCF8012240F22551054800F0B0F885
:100800000121034800F069F807B000BD000C014069
:100810000048004010B540F22551184800F076F825
:1008200008B340F22551154800F048F8134800F08D
:1008300029F9C4B20D2C05D0232C03D01048007820
:10084000142811D10D200F490D4A12788854002028
:100850000B49087001200C490870002240F2255114
:10086000064800F07DF807E0054801780078401C54
:10087000034A10700348445410BD00000048004073
:1008800002000020580000200300002070B504463C
:1008900000250CE0615D084800F0F9F800BF8021F8
:1008A000054800F026F80028F9D0681CC5B2605D44
:1008B0000028EFD170BD00000048004010B50022B4
:1008C000002340F66A14A14200D100BF0A1201249D
:1008D0009440A3B2DC43048010BD21B1828942F46C
:1008E0000052828104E082894DF6FF731A408281B2
:1008F000704702460020B1F5007F00D100BF138889
:100900000B400BB1012000E00020704770B502469B
:10091000002400230025002040F66A16B14200D1D1
:1009200000BFC1F3421501F01F03012606FA03F3CD
:10093000012D02D19689334006E0022D02D1168A9C
:10094000334001E0968A33400C12012606FA04F483
:100950001688344013B10CB1012000E0002070BDB6
:10096000F0B50346002400260025002040F66A1753
:10097000B94200D100BF1846C1F3421401F01F066E
:10098000012707FA06F5012C01D10C3004E0022CF6
:1009900001D1103000E014301AB107682F4307600E
:1009A00002E00768AF430760F0BD00002DE9F047A3
:1009B00086B005460E460024A24600BFA146002789
:1009C000B08900B100BF2F462C8A4CF6FF7004405E
:1009D000F08804432C82AC894EF6F3100440B088B2
:1009E00031890843718908430443AC81AC8A4FF6CE
:1009F000FF400440B0890443AC8201A8FFF762FDC8
:100A00001F48874202D1DDF810A001E0DDF80CA0FC
:100A1000A88900F4004040B10AEBCA0000EB0A10BC
:100A200031684900B0FBF1F807E00AEBCA0000EBBF
:100A30000A1031688900B0FBF1F86420B8FBF0F0CF
:100A400004012009642101FB1089A88900F40040F9
:100A500040B1322000EBC900B0FBF1F000F007001C
:100A6000044308E0322000EB09106421B0FBF1F0F0
:100A700000F00F0004432C8106B0BDE8F0870000B1
:100A80000038014001468888C0F308007047C1F370
:100A900008028280704700BFFEE700002E48006811
:100AA0004FF47A72B0FBF2F1B1F1807F00D31DE018
:100AB00021F07F40401E4FF0E022506150170F227E
:100AC000002807DA13071D0E244B00F00F04241F23
:100AD0001D5503E013071C0E214B1C5400BF0020C2
:100AE0004FF0E02290610720106100BFFFF73EFE4B
:100AF000FFF764FC1BA0FFF7C9FE2BE020211B4879
:100B0000FFF757FC6420FFF7BDFB20211748FFF7D4
:100B10004EFC6420FFF7B6FB15480078012819D178
:100B20000020134908701348FFF7B0FE012240F27D
:100B300025511148FFF714FF20211048FFF737FC1B
:100B40006420FFF79FFB20210C48FFF732FC642054
:100B5000FFF798FBD2E700001C00002018ED00E032
:100B600000E400E053746172740D0A000018014043
:100B7000030000205800002000480040000C014005
:100B8000A00B000800000020440000006C010008D9
:100B9000E40B0008440000208C06000088010008D7
:100BA0000000000000000000202020202020202045
:100BB00020202020202020202020202000A24A04C5
:100BC00000000000000000000102030406070809FD
:100BD00000000000010203040102030406070809E3
:040BE00002040608FD
:0400000508000131BD
:00000001FF
